:020000040800F2
:1000000000440020810200082F0E00082B0E00087B
:100010002D0E0008B1030008451000080000000084
:10002000000000000000000000000000C101000806
:10003000B3030008000000001D0200086D0E000858
:100040009B0200089B0200089B0200089B0200081C
:100050009B0200089B0200089B0200089B0200080C
:100060009B0200089B0200089B0200089B020008FC
:100070009B0200089B0200089B0200089B020008EC
:100080009B0200089B0200089B0200089B020008DC
:100090009B0200089B0200089B0200089B020008CC
:1000A0009B020008710F00089B0200089B020008D9
:1000B0009B0200089B0200089B0200089B020008AC
:1000C0009B0200089B0200089B0200089B0200089C
:1000D0009B0200089B0200089B0200089B0200088C
:1000E0009B0200089B0200089B0200089B0200087C
:1000F0009B0200089B0200089B0200089B0200086C
:100100009B0200089B0200089B0200089B0200085B
:100110009B0200089B0200089B0200089B0200084B
:100120009B0200089B0200089B0200089B0200083B
:100130009B0200089B0200089B0200089B0200082B
:100140009B0200089B0200089B0200089B0200081B
:100150009B0200089B0200089B0200089B0200080B
:100160009B0200089B0200089B0200089B020008FB
:100170009B0200089B0200089B0200080000000090
:100180009B0200089B0200089B0200089B020008DB
:100190009B0200089B0200089B0200089B020008CB
:1001A0009B0200089B0200089B020008DFF80CD0AD
:1001B00000F0ECF8004800478510000800440020DB
:1001C0002C4B19680868B0E8F04F80F30988BFF33A
:1001D0006F8F4FF0000080F311887047000000001F
:1001E00008480068006880F308884FF0000080F33A
:1001F000148862B661B6BFF34F8FBFF36F8F00DF15
:1002000000BF00BF08ED00E0DFF80C00016841F41A
:1002100070010160704700BF88ED00E0EFF30980D6
:10022000BFF36F8F134B1A681EF0100F08BF20ED3D
:10023000108A20E9F04F106009B44FF0500080F3AD
:100240001188BFF34F8FBFF36F8F01F0E7FA4FF0C4
:10025000000080F3118809BC19680868B0E8F04F05
:100260001EF0100F08BFB0EC108A80F30988BFF3AE
:100270006F8F704718000020EFF305807047000073
:100280000648804706480047FEE7FEE7FEE7FEE730
:10029000FEE7FEE7FEE7FEE7FEE7FEE71D0F0008CC
:1002A000AD0100082DE9F05F0546002092469B460F
:1002B00088460646814640241BE02846414647467C
:1002C000224600F053F853465A46C01A914110D3C3
:1002D00011461846224600F03AF82D1A67EB01083D
:1002E0004F4622460120002100F031F817EB0009AB
:1002F0004E41201EA4F10104DFDC484631462A4667
:100300004346BDE8F09F40EA01039B0703D009E0A4
:1003100008C9121F08C0042AFAD203E011F8013BF1
:1003200000F8013B521EF9D27047D2B201E000F84A
:10033000012B491EFBD270470022F6E710B5134689
:100340000A4604461946FFF7F0FF204610BD202A52
:1003500004DB203A00FA02F1002070479140C2F11C
:10036000200320FA03F3194390407047202A04DB4E
:10037000203A21FA02F00021704721FA02F3D0401E
:10038000C2F120029140084319467047064C074DC0
:1003900006E0E06840F0010394E807009847103455
:1003A000AC42F6D3FFF706FF141C0008341C00080B
:1003B000FEE7704770B5044600F000F90546601C82
:1003C00002D004480078044400F0F8F8401BA04232
:1003D000FAD370BD080000202DE9F84FDFF890B186
:1003E00000224FF001084FF0030A4FF00F090BF104
:1003F000040E00BF0B6808FA02F42340A3426ED13A
:100400004D68022D01D0122D0ED1D50800EB850CC0
:10041000DCF820505607F70E09FA07F6B5430E69C7
:10042000BE402E43CCF82060066855000F790AFACA
:1004300005FC07F0030726EA0C06AF4037430760C8
:100440004E68012E05D0022E03D0112E01D0122E9F
:100450000ED18768CE6827EA0C07AE403E4386601F
:100460004668A6430C79C4F30014944034434460B6
:10047000C4688E6824EA0C04AE402643C6604C680B
:10048000E4006FD53B4C256845F480452560246821
:1004900022F0030504F480440094374C2E19D6F85A
:1004A000084895072F0F09FA07F5AC43334DA842CA
:1004B00001D100252EE0324DA84201D1012529E0CD
:1004C000304DA84201D1022524E02F4DA84201D190
:1004D00003251FE02D4DA84202D104251AE041E07A
:1004E0002B4DA84201D1052514E02A4DA84201D187
:1004F00006250FE0284DA84201D107250AE0274D27
:10050000A84201D1082505E0254DA84201D10925C1
:1005100000E00A25BD402543C6F80858DBF8004036
:100520005D464E689C43F60300D51C432C60DEF804
:10053000004075464E689C43B60300D51C432C60B2
:100540000B4D08352C684E689C43F60200D51C43C1
:100550002C60074D0C352C684E689C43B60200D5C4
:100560001C432C60521C102AFFF444AFBDE8F88FE6
:10057000003C01404438024000300140000002408D
:100580000004024000080240000C0240001002403B
:100590000014024000180240001C024000200240EB
:1005A00000240240426931EA020200D1090481615B
:1005B00070470AB1816170470904FBE70148806810
:1005C000704700000800002002488168027811444A
:1005D00081607047080000200B4810B5016841F4A5
:1005E00000710160016841F480610160016841F4BB
:1005F00080710160032000F08DF8002000F006F803
:1006000000F03EF8002010BD003C024010B501464D
:1006100088B00022192000F05DF8192000F04CF895
:1006200013480024016841F001010160006805A938
:1006300000F001000690684600F016F900F034F969
:100640000C494000B0FBF1F10C480B4A491E026016
:1006500040F2E732C0E90324C0E9011400F0F6FAE1
:1006600010B1012008B010BD044800F00BFBF9E701
:100670004438024040420F0000000140CC020020FC
:100680000C4882B0016841F480410160006800F4C8
:10069000804000900748001F016841F080510160D0
:1006A0000068002200F0805000900F21901E02B0E0
:1006B00000F010B844380240002809DB00F01F02A7
:1006C000012191404009800000F1E020C0F80011B4
:1006D00070470000F0B40E4B1B680C46C3F30223B6
:1006E000C3F10705042D00D90425191D072901D2DE
:1006F000002300E0DB1E012606FA05F1491E214019
:1007000099409E40761E16403143F0BC00F09BBCE1
:100710000CED00E0064900F0070208684FF6FF0301
:10072000184040EA0220034A104308607047000066
:100730000CED00E00000FA052DE9F0470E4605003B
:1007400065D0DFF81481D8F80000F7B200F00F0090
:10075000B04207D288F80070D8F8000000F00F000F
:10076000B04254D128683D4C810712D5400703D5CB
:10077000206840F4E05020602878000703D5206806
:1007800040F4604020602068A96820F0F000084331
:1007900020602878C0072DD03049686808390128C2
:1007A00012D0022813D0032811D009688907002924
:1007B0002DDA216821F0030101432160FFF7FEFEDD
:1007C000814641F2883A0EE009688903EFE709683B
:1007D0008901ECE7FFF7F2FEA0EB0901514502D9D0
:1007E0000320BDE8F0872068696800F00C00B0EBDA
:1007F000810FEFD1D8F80010404601F00F01B1424F
:1008000007D90770006800F00F00B04201D0012046
:10081000E7E72878400705D52068E96820F4E0502C
:10082000084320602878000706D52068296920F44D
:10083000604040EAC100206000F046F82168084AA4
:10084000C1F30311515CC840064908600020FFF75E
:10085000DDFE0020C5E70000003C024008380240F1
:10086000E01B0008140000200F2202600C4A1368ED
:1008700003F003034360136803F0F003836013681D
:1008800003F4E053C36012684FF4E05303EAD2026A
:1008900002610448006800F00F0008607047000023
:1008A00008380240003C02400448054900680968D5
:1008B000044AC1F34231515CC84070471400002023
:1008C00008380240F01B0008154810B5006810F009
:1008D0000C02144813D01449042A0FD0082A0ED150
:1008E0000F4C241F2268236802F03F025B0207D5E9
:1008F0002068C0F38810A0FB010106E0084610BD87
:100900002168C1F38811A1FB00010023FFF7CAFC95
:100910002168C1F30141491C4900B0FBF1F010BD51
:10092000083802400024F40040787D012DE9F84F9A
:10093000050076D02878DFF8F8B2BE4CC00749D061
:10094000DBF800105846C1F38101012908D0006886
:10095000C0F3810002280AD1201D0068400206D59C
:100960002068800336D568680028E2D032E06868E5
:10097000B0F5803F10D0B0F5A02F206810D020F443
:1009800080302060206820F4802020606868A0B15A
:10099000FFF714FE06460CE0206840F48030F4E7D0
:1009A00040F480202060F7E7FFF708FE801B6428F2
:1009B00073D820688003F7D50CE0FFF7FFFD0646EB
:1009C00005E000BFFFF7FAFD801B6428F0D820681F
:1009D0008003F7D42878DFF8608280074FF00009A1
:1009E0003ED5DBF80010584611F00C0F09D0006816
:1009F000C0F3810002280BD18D48001F006840021F
:100A000006D42068800715D5E868012809D111E0CF
:100A1000E868B8B10120C8F80000FFF7CFFD06462E
:100A200005E002E1FFF7CAFD801B0228C0D820685C
:100A30008007F7D52068296920F0F80040EAC10056
:100A400020600DE0C8F80090FFF7B8FD064604E00E
:100A5000FFF7B4FD801B02281FD820688007F7D459
:100A60002878000722D5724E744869696C3671B1D6
:100A700001210160FFF7A2FD074604E0FFF79EFD9C
:100A8000C01B022809D830688007F7D50EE0C0F8EF
:100A90000090FFF793FD074605E083E0FFF78EFD2A
:100AA000C01B02287ED830688007F7D4287840071A
:100AB00068D5DFF87CA100270AF1380ADAF80000CF
:100AC000C0000BD4DAF8001041F08051CAF80010D1
:100AD000DAF80000012700F080500090584E30688E
:100AE000C00510D4306840F480703060FFF766FDB8
:100AF000009005E0FFF762FD0099401A022851D8E6
:100B00003068C005F6D54A4EA868683601280FD06F
:100B10000528306810D020F001003060306820F0E7
:100B200004003060A868B8B1FFF748FD00900FE0FE
:100B3000306840F00100F4E740F004003060F7E76F
:100B4000FFF73CFD0099411A41F28830814264D898
:100B500030688007F4D50EE0FFF730FD009007E025
:100B6000FFF72CFD0099411A41F28830814254D898
:100B700030688007F4D42FB1DAF8001021F08051EA
:100B8000CAF80010A869C0B3DBF80010C1F38101F6
:100B900002294AD00228484607D0C8F86000FFF76B
:100BA0000DFD00E039E005463AE04746C8F8600030
:100BB000FFF704FD064604E0FFF700FD801B022856
:100BC0002BD820688001F7D4D5E907010843A96A2A
:100BD0001C4A490802EB01416A6A41EA8211084352
:100BE00095F82C1040EA01611148001F01600120B6
:100BF0003866FFF7E3FC054605E014E0FFF7DEFC8E
:100C0000401B022809D820688001F7D50BE000BFFF
:100C1000FFF7D4FC401B022802D90320BDE8F88F5F
:100C200020688001F4D40020F8E70120F6E70000F6
:100C3000083802400038024000004742800E474218
:100C4000007000400000FFFF7047704710B50400BF
:100C500003D094F83D0010B107E0012010BD002042
:100C600084F83C00204600F00CF8022084F83D0097
:100C7000211D206800F082F9012084F83D00002049
:100C800010BD70470168CA6842F00102CA6000687E
:100C9000816801F00701062903D0016841F00101D4
:100CA000016000207047704770B504460068016914
:100CB0004FF00005C943890715D4C168C9438907A6
:100CC00011D4E91E01610120207720688069800726
:100CD000204602D0FFF7E7FF04E000F098F8204636
:100CE00000F096F8257720680169C943490717D4B1
:100CF000C168C943490713D46FF0040101610220A0
:100D000020772068806910F4407F204602D0FFF7EA
:100D1000CAFF04E000F07BF8204600F079F8257760
:100D200020680169C943090716D4C168C943090786
:100D300012D46FF008010161042020772068C06997
:100D40008007204602D0FFF7AEFF04E000F05FF816
:100D5000204600F05DF8257720680169C943C9067F
:100D600017D4C168C943C90613D46FF010010161DB
:100D7000082020772068C06910F4407F204602D008
:100D8000FFF791FF04E000F042F8204600F040F841
:100D9000257720680169C943C90708D1C168C943DB
:100DA000C90704D1891E0161204600F033F820688C
:100DB0000169C943090609D4C168C943090605D4B4
:100DC0006FF0800101612046FFF73EFF2068016956
:100DD000C943490609D4C168C943490605D46FF01F
:100DE00040010161204600F01FF820680169C943F5
:100DF00089060BD4C168C943890607D46FF0200166
:100E000001612046BDE87040FFF71FBF70BD70470D
:100E10007047000000680349884201D1FFF7D4BB46
:100E200070470000000001407047FEE7FEE7704792
:100E3000064C4FF47A75012000F06EF9012120462E
:100E4000FFF7B0FB2846FFF7B5FAF4E700040240CD
:100E5000054C012000F060F902212046FFF7A2FBBB
:100E6000FA20FFF7A7FAF4E70004024010B550207B
:100E700080F31188BFF34F8FBFF36F8F00F0CEFD6B
:100E800018B104494FF080500860002080F31188A9
:100E900010BD000004ED00E030B593B0302168468D
:100EA000FFF74AFA14210CA8FFF746FA1948002563
:100EB000016841F080510160006800F0805011909D
:100EC0001548016841F4404101600068022400F4C3
:100ED000404011900120039010200490009406944B
:100EE0000820CDE90750A820CDE9090404200B9083
:100EF0006846FFF71BFD0CA90F2081E831004FF475
:100F0000A0500F90E002109005210CA8FFF714FCF0
:100F100013B030BD403802400070004010480168F6
:100F200041F4700101600F48016841F00101016066
:100F30000C4A00210832116002680B4B1A40026013
:100F4000031D0A4A1A60026822F4802202600548E2
:100F50000C30016002495806803908607047000073
:100F600088ED00E000380240FFFFF6FE103000245C
:100F70000148FFF799BE0000CC020020F0B50268DE
:100F8000254C264D264E274F274B4FF0804CA04234
:100F900009D0604507D0A84205D0B04203D0B8427E
:100FA00001D0984204D122F0700E4A6842EA0E0243
:100FB000A0421BD0604519D0A84217D0B04215D02E
:100FC000B84213D0984211D0184DA8420ED0184DF7
:100FD000A8420BD0174DA84208D0174DA84205D003
:100FE000164DA84202D0164DA84203D122F44075F6
:100FF000CA682A434D6922F080022A4302608A6847
:10100000C2620A688262A04201D0984201D1096995
:10101000016301214161F0BD000001400004004076
:1010200000080040000C0040000401400040014066
:10103000004401400048014000180040001C0040EE
:1010400000200040FEE70907090E002804DB00F13C
:10105000E02080F80014704700F00F0000F1E0205D
:1010600080F8141D704702E008C8121F08C1002A4A
:10107000FAD170477047002001E001C1121F002A19
:10108000FBD1704794B0FFF7A7FAFFF705FF1421D3
:101090006846FFF751F919480024016841F0020140
:1010A00001600068164D00F00200139022460321F3
:1010B0002846FFF77EFA032000900120CDE90104C5
:1010C000694628460394FFF787F91C220D4905A8B5
:1010D000FFF719F9002105A800F02AF80A4C094980
:1010E0001C2220601C310CA8FFF70DF900210CA870
:1010F00000F01EF8606000F016F8FEE7303802409D
:1011000000040240A81B0008000000200146002047
:10111000842900D0C81C704710B500B9012000F028
:1011200019FB002010BD10B500F03AFB002010BDE7
:101130007FB50D4604464169B0F9080081B1A16947
:1011400071B1FFF7E3FFD4E905128DE80700D4E998
:1011500000102B46226900F036FC039004B070BDED
:10116000FFF7D4FF03A9CDE90001208A2B4682B204
:10117000D4E9001000F0FAFB012801D00020EDE7CF
:101180000398EBE72DE9F041184C0F4605466669D8
:101190002068001D00F01AFA38B9206890F82C1069
:1011A00001208840A1698143A161681C07D137B142
:1011B0002168BDE8F0410E48091D00F04BBA2068D7
:1011C0003544B5424560216805D2A068BDE8F041CC
:1011D000091D00F027BA6068091D00F023FA206B92
:1011E000854200D22563BDE8F08100001800002090
:1011F000E80300202DE9F041054600F037FA2E4CB7
:101200002069401C206120682C4F10B1E06940B378
:101210002DE025602069012829D1002606EB8600F3
:1012200007EB800000F0F0F9761C072EF6D3234878
:101230008C3000F0E9F92148A03000F0E5F91F48B2
:10124000B43000F0E1F91D48C83000F0DDF91B486A
:10125000DC3000F0D9F919488C3060601430A0609F
:1012600005E02068E96AC06A884200D82560E06A23
:10127000401CE062E96A0120A26988401043A06135
:1012800001EB810007EB8000291D00F0E3F900F07D
:101290000DFAE06900280CD02068E96AC06A88422B
:1012A00007D207494FF080500860BFF34F8FBFF35C
:1012B0006F8FBDE8F0810000180000200C030020B3
:1012C00004ED00E010B5044690F8510058B1012833
:1012D0000CD002280FD0502080F31188BFF34F8F1D
:1012E000BFF36F8FFEE7206B00F0F4F92046BDE8F6
:1012F000104000F0EFB910BD10484FF47051420794
:1013000006D0C01D0D4920F00700411AC1F57051EB
:101310000B4A00230144C2E900030839103A21F0C6
:10132000070111604B600B600B1AC0E9001393605A
:101330004FF000405360D06070470000FC03002075
:1013400064000020144E154CA6F1C8074FF08058D9
:10135000DFF84C9012E000BF00F088F9F068C56833
:10136000281D00F033F92069401E2061E068401E0E
:10137000E06000F09BF92846FFF7A4FFE068002832
:10138000EAD138680128F9D9C9F80080BFF34F8F36
:10139000BFF36F8FF2E70000D40300201800002095
:1013A00004ED00E02DE9F0479A46DDE90984814625
:1013B0006FF00303206B03EB82021044089D20F0C2
:1013C0000706700707D0502080F31188BFF34F8FB6
:1013D000BFF36F8FFEE723180A5C83F834200A5CA2
:1013E00012B1401C1028F6D3002784F84370072D53
:1013F00000D30625E562C4E91157201D00F00FF95E
:1014000004F1180000F00BF92461C5F107006462D3
:10141000A061E76484F8507052464946304600F0B7
:10142000BFF82060B8F1000F01D0C8F80040BDE857
:10143000F087000030B5114900E011460A68824289
:10144000FBD34B685C18844203D140681844486061
:10145000084643681C18944209D1084C103C246883
:10146000A24209D052681A4442600A6812680260B7
:10147000814200D0086030BD0460F9E764000020BC
:1014800006484168096829B14168C968C96849685E
:10149000016370474FF0FF31FAE7000018000020A9
:1014A00008484068401C4FF0500080F3118804D079
:1014B000BFF34F8FBFF36F8FFEE7BFF34F8FBFF3C5
:1014C0006F8FFEE76C0000202DE9F04105460027F4
:1014D00000F09CF9314E306808B9FFF70DFFF06855
:1014E00005424BD1C5B3083568070ED005F007009B
:1014F000C0F108000544680707D0502080F3118828
:10150000BFF34F8FBFF36F8FFEE72DB37068854237
:1015100034D82248103001460C6801E020460C46C1
:101520006168A94202D221680029F7D131688C4252
:1015300024D007682168016060680837411B1029C2
:101540000FD96019420708D0502080F31188BFF3EB
:101550004F8FBFF36F8FFEE710E041606560FFF7CC
:1015600069FF61687068401A7060B268904200D28A
:10157000B060F06801430020C4E9000100F0B2FA55
:10158000780707D0502080F31188BFF34F8FBFF347
:101590006F8FFEE73846BDE8F08100005400002060
:1015A00010B5031F4FF080741C601B1F21F0010158
:1015B0001960191F044B0B6014390A60091F6FF082
:1015C000020244380A6010BDA1140008D0E90132BB
:1015D00001699A60D0E901235A604A68824201D1C8
:1015E00082684A60002202610868401E086008683C
:1015F00070470000034B036003F154000860802033
:10160000106070477800002000F108014FF0FF32B1
:10161000C0E90112C1600161002101607047002131
:101620000161704730B50B685A1C02D000F1080206
:1016300002E0026904E02246546825689D42FAD916
:1016400053684B6099608A60516008610168491C69
:10165000016030BD42684A6093688B60936859604E
:10166000916008610168491C01607047502080F357
:101670001188BFF34F8FBFF36F8F0A494868401C32
:10168000486001280CD10848006810F0FF0F07D00F
:10169000502080F31188BFF34F8FBFF36F8FFEE7A9
:1016A000704700006C00002004ED00E00849486825
:1016B00028B1401E486001D180F311887047502046
:1016C00080F31188BFF34F8FBFF36F8FFEE70000E9
:1016D0006C00002070B5002827D0144DA0F108043C
:1016E0006168E868014207D1502080F31188BFF398
:1016F0004F8FBFF36F8FFEE722683AB1502080F31F
:101700001188BFF34F8FBFF36F8FFEE78143616096
:1017100000F07CF860686968084468602046FFF75C
:1017200089FEBDE8704000F0DDB970BD54000020B6
:101730004FF0E02000210161816105494FF47A7288
:101740000968B1FBF2F1491E41610721016170474F
:101750001400002010B5020014D00F48806B38B17F
:10176000502080F31188BFF34F8FBFF36F8FFEE7D8
:1017700000F04CF800211046FFF704FD00F0B2F92C
:10178000002807D105494FF080500860BFF34F8F04
:10179000BFF36F8F10BD00001800002004ED00E0C3
:1017A00010B586B00024039405AA04A903A80494E4
:1017B000FFF720FFDDE903010094CDE901100023CC
:1017C0000EA11048059A00F0FEF80F490028486362
:1017D00011D0502080F31188BFF34F8FBFF36F8F6C
:1017E0004FF0FF3008630120C8614C6106B0BDE8CE
:1017F000104000F041B806B010BD000049444C450F
:101800000000000045130008180000200248816B0A
:10181000491C816370470000180000201448816B48
:1018200011B1012141627047002141628169B1FA21
:1018300081F1C1F11F0101EB81020E4951F8223003
:101840006BB101EB820101F108034A6852684A60FA
:101850009A4201D152684A60D168016070475020B5
:1018600080F31188BFF34F8FBFF36F8FFEE7000047
:10187000180000200C0300201CB537480168374AC7
:10188000914207D1502080F31188BFF34F8FBFF3EF
:101890006F8FFEE700683149491E884207D150200A
:1018A00080F31188BFF34F8FBFF36F8FFEE72C4992
:1018B00008780190FF20087008788DF800009DF8E6
:1018C00000009DF8002000F0F000904207D050206A
:1018D00080F31188BFF34F8FBFF36F8FFEE79DF842
:1018E0000000204B00F0500018700720986005E0C1
:1018F0009DF8002052008DF80020401E9DF8002029
:101900001206F5D49860032807D0502080F3118880
:10191000BFF34F8FBFF36F8FFEE74FF440709860B7
:10192000019808700C482030016841F47001016092
:10193000016841F070410160FFF7FAFE0020586035
:10194000FEF762FC0848016841F040410160FEF783
:1019500047FC00201CBD000000ED00E071C20F41FB
:1019600000E400E06C00002034EF00E02DE9FF5FB0
:101970008346DDE90E87994616468A469000FFF7B2
:10198000A3FD05001CD05420FFF79EFD040014D0D9
:101990000020256384F85100CDE90240CDE900879D
:1019A0004B46324651465846FFF7FCFC2046FFF7AF
:1019B00021FC012004B0BDE8F09F2846FFF78AFE15
:1019C0004FF0FF30F6E7F0B585B0DDE90B640A9D16
:1019D000A6B1DCB1542700972663022684F8516033
:1019E000002604AFCDE90246CDE90057FFF7DAFC47
:1019F0002046FFF7FFFB049805B0F0BD502080F3B0
:101A00001188BFF34F8FBFF36F8FFEE7502080F335
:101A10001188BFF34F8FBFF36F8FFEE72DE9F041C1
:101A20002E4C0027A06B40B1206A401C2062606AE7
:101A300000B101273846BDE8F0816669761C666111
:101A400013D16068006838B1502080F31188BFF36B
:101A50004F8FBFF36F8FFEE76068A1686160A06081
:101A6000A06A401CA062FFF70BFD206BDFF87080BE
:101A7000864209D36068006880B16068C068C56844
:101A8000686886420DD220632068C06A00EB80013E
:101A900058F821000128CAD90127C8E74FF0FF30C4
:101AA000F1E7281DFFF792FDA86A18B105F11800AB
:101AB000FFF78CFDE86A0121A26981401143A16111
:101AC00000EB800108EB8100291DFFF7C3FDE86AE8
:101AD0002168C96A8842CDD30127CBE718000020CE
:101AE0000C0300202DE9F0472C4D00242746A86B5D
:101AF00038B1FFF7BBFDA86B401EA863A86B40B1CF
:101B000046E0502080F31188BFF34F8FBFF36F8FF3
:101B1000FEE72969224E0120D1B3A6F1B40980461F
:101B20003068E8B1F068C46804F11800FFF74EFDB2
:101B3000201DFFF74BFDE06AAA6908FA00F1114386
:101B4000A96100EB800109EB8100211DFFF782FDF7
:101B5000E06A2968C96A8842E2D3C5F82480DFE7D1
:101B60000CB1FFF78DFC2C6A44B14646FFF756FFD7
:101B700000B16E62641EF9D100202862686A38B133
:101B80000849012738070860BFF34F8FBFF36F8FF5
:101B9000FFF78CFD3846BDE8F087000018000020F4
:101BA000C003002004ED00E0081C0008310E00080E
:101BB00000000000000000008000000000000000A5
:101BC00000000000F81B0008510E00080000000093
:101BD0000000000080000000000000000000000085
:101BE00000000000000000000102030406070809CD
:101BF000000000000102030464656661756C7454A2
:101C000061736B320000000064656661756C74542A
:101C100061736B00341C0008000000207800000095
:101C200066100008AC1C0008780000208843000003
:101C30007610000800000000000000000100000015
:101C400010000000000000000024F400000000006C
:101C50000000000000000000000000000000000084
:101C60000000000000000000000000000000000074
:101C70000000000000000000000000000000000064
:101C80000000000000000000000000000000000054
:101C90000000000000000000000000000000000044
:0C1CA00000000000AAAAAAAA0000000090
:04000005080001AD41
:00000001FF
